:020000040000fa
:080000000002040000000000f2
:020000040000fa
:0400080026030000cb
:020000040000fa
:04000c0004030000e9
:020000040000fa
:0400100016030000d3
:020000040000fa
:040014000c030000d9
:020000040000fa
:040018001e030000c3
:020000040000fa
:04001c0026030000b7
:020000040000fa
:0400200026030000b3
:020000040000fa
:0400240026030000af
:020000040000fa
:0400280026030000ab
:020000040000fa
:04002c0026030000a7
:020000040000fa
:0400300026030000a3
:020000040000fa
:04003400260300009f
:020000040000fa
:04003800260300009b
:020000040000fa
:04003c002603000097
:020000040000fa
:040040002603000093
:020000040000fa
:04004400260300008f
:020000040000fa
:04004800260300008b
:020000040000fa
:04004c002603000087
:020000040000fa
:040050002603000083
:020000040000fa
:04005400260300007f
:020000040000fa
:04005800260300007b
:020000040000fa
:04005c002603000077
:020000040000fa
:040060002603000073
:020000040000fa
:04006400260300006f
:020000040000fa
:04006800260300006b
:020000040000fa
:04006c002603000067
:020000040000fa
:040070002603000063
:020000040000fa
:04007400260300005f
:020000040000fa
:04007800260300005b
:020000040000fa
:04007c002603000057
:020000040000fa
:040080002603000053
:020000040000fa
:04008400260300004f
:020000040000fa
:04008800260300004b
:020000040000fa
:04008c002603000047
:020000040000fa
:040090002603000043
:020000040000fa
:04009400260300003f
:020000040000fa
:04009800260300003b
:020000040000fa
:04009c002603000037
:020000040000fa
:0400a0002603000033
:020000040000fa
:0400a400260300002f
:020000040000fa
:0400a800260300002b
:020000040000fa
:0400ac002603000027
:020000040000fa
:0400b0002603000023
:020000040000fa
:0400b400260300001f
:020000040000fa
:0400b800260300001b
:020000040000fa
:0400bc002603000017
:020000040000fa
:0400c0002603000013
:020000040000fa
:0400c400260300000f
:020000040000fa
:0400c800260300000b
:020000040000fa
:0400cc002603000007
:020000040000fa
:0400d0002603000003
:020000040000fa
:0400d40026030000ff
:020000040000fa
:0400d80026030000fb
:020000040000fa
:0400dc0026030000f7
:020000040000fa
:0400e00026030000f3
:020000040000fa
:0400e40026030000ef
:020000040000fa
:0400e80026030000eb
:020000040000fa
:0400ec0026030000e7
:020000040000fa
:0400f00026030000e3
:020000040000fa
:0400f40026030000df
:020000040000fa
:0400f80026030000db
:020000040000fa
:0400fc0026030000d7
:020000040000fa
:0401000026030000d2
:020000040000fa
:0401040026030000ce
:020000040000fa
:0401080026030000ca
:020000040000fa
:04010c0026030000c6
:020000040000fa
:0401100026030000c2
:020000040000fa
:0401140026030000be
:020000040000fa
:0401180026030000ba
:020000040000fa
:04011c0026030000b6
:020000040000fa
:0401200026030000b2
:020000040000fa
:0401240026030000ae
:020000040000fa
:0401280026030000aa
:020000040000fa
:04012c0026030000a6
:020000040000fa
:0401300026030000a2
:020000040000fa
:04013400260300009e
:020000040000fa
:04013800260300009a
:020000040000fa
:04013c002603000096
:020000040000fa
:040140002603000092
:020000040000fa
:04014400260300008e
:020000040000fa
:04014800260300008a
:020000040000fa
:04014c002603000086
:020000040000fa
:040150002603000082
:020000040000fa
:04015400260300007e
:020000040000fa
:04015800260300007a
:020000040000fa
:04015c002603000076
:020000040000fa
:040160002603000072
:020000040000fa
:04016400260300006e
:020000040000fa
:04016800260300006a
:020000040000fa
:04016c002603000066
:020000040000fa
:040170002603000062
:020000040000fa
:04017400260300005e
:020000040000fa
:04017800260300005a
:020000040000fa
:04017c002603000056
:020000040000fa
:040180002603000052
:020000040000fa
:04018400260300004e
:020000040000fa
:04018800260300004a
:020000040000fa
:04018c002603000046
:020000040000fa
:040190002603000042
:020000040000fa
:04019400260300003e
:020000040000fa
:04019800260300003a
:020000040000fa
:04019c002603000036
:020000040000fa
:0401a0002603000032
:020000040000fa
:0401a400260300002e
:020000040000fa
:0401a800260300002a
:020000040000fa
:0401ac002603000026
:020000040000fa
:0401b0002603000022
:020000040000fa
:0401b400260300001e
:020000040000fa
:0401b800260300001a
:020000040000fa
:0402080026030000c9
:020000040000fa
:04020c0026030000c5
:020000040000fa
:0402100026030000c1
:020000040000fa
:0402140026030000bd
:020000040000fa
:0402180026030000b9
:020000040000fa
:04021c0026030000b5
:020000040000fa
:0402200026030000b1
:020000040000fa
:0402240026030000ad
:020000040000fa
:0402280026030000a9
:020000040000fa
:04022c0026030000a5
:020000040000fa
:0402300026030000a1
:020000040000fa
:04023400260300009d
:020000040000fa
:040238002603000099
:020000040000fa
:04023c002603000095
:020000040000fa
:040240002603000091
:020000040000fa
:04024400260300008d
:020000040000fa
:040248002603000089
:020000040000fa
:04024c002603000085
:020000040000fa
:040250002603000081
:020000040000fa
:04025400260300007d
:020000040000fa
:040258002603000079
:020000040000fa
:04025c002603000075
:020000040000fa
:040260002603000071
:020000040000fa
:04026400260300006d
:020000040000fa
:040268002603000069
:020000040000fa
:04026c002603000065
:020000040000fa
:040270002603000061
:020000040000fa
:04027400260300005d
:020000040000fa
:040278002603000059
:020000040000fa
:04027c002603000055
:020000040000fa
:040280002603000051
:020000040000fa
:04028400260300004d
:020000040000fa
:040288002603000049
:020000040000fa
:04028c002603000045
:020000040000fa
:040290002603000041
:020000040000fa
:04029400260300003d
:020000040000fa
:040298002603000039
:020000040000fa
:04029c002603000035
:020000040000fa
:0402a0002603000031
:020000040000fa
:0402a400260300002d
:020000040000fa
:0402a8002603000029
:020000040000fa
:0402ac002603000025
:020000040000fa
:0402b0002603000021
:020000040000fa
:0402b400260300001d
:020000040000fa
:0402b8002603000019
:020000040000fa
:0402bc002603000015
:020000040000fa
:0402c0002603000011
:020000040000fa
:0402c400260300000d
:020000040000fa
:0402c8002603000009
:020000040000fa
:0402cc002603000005
:020000040000fa
:0402d0002603000001
:020000040000fa
:0402d40026030000fd
:020000040000fa
:0402d80026030000f9
:020000040000fa
:0402dc0026030000f5
:020000040000fa
:0402e00026030000f1
:020000040000fa
:0402e40026030000ed
:020000040000fa
:0402e80026030000e9
:020000040000fa
:0402ec0026030000e5
:020000040000fa
:0402f00026030000e1
:020000040000fa
:0402f40026030000dd
:020000040000fa
:0402f80026030000d9
:020000040000fa
:0402fc0026030000d5
:020000040000fa
:0403000026030000d0
:020000040000fa
:0403040026030000cc
:020000040000fa
:0403080026030000c8
:020000040000fa
:04030c0026030000c4
:020000040000fa
:0403100026030000c0
:020000040000fa
:0403140026030000bc
:020000040000fa
:0403180026030000b8
:020000040000fa
:04031c0026030000b4
:020000040000fa
:0403200026030000b0
:020000040000fa
:0403240026030000ac
:020000040000fa
:0403280026030000a8
:020000040000fa
:04032c0026030000a4
:020000040000fa
:0403300026030000a0
:020000040000fa
:04033400260300009c
:020000040000fa
:040338002603000098
:020000040000fa
:04033c002603000094
:020000040000fa
:040340002603000090
:020000040000fa
:04034400260300008c
:020000040000fa
:040348002603000088
:020000040000fa
:04034c002603000084
:020000040000fa
:040350002603000080
:020000040000fa
:04035400260300007c
:020000040000fa
:040358002603000078
:020000040000fa
:04035c002603000074
:020000040000fa
:040360002603000070
:020000040000fa
:04036400260300006c
:020000040000fa
:040368002603000068
:020000040000fa
:04036c002603000064
:020000040000fa
:040370002603000060
:020000040000fa
:04037400260300005c
:020000040000fa
:040378002603000058
:020000040000fa
:04037c002603000054
:020000040000fa
:040380002603000050
:020000040000fa
:04038400260300004c
:020000040000fa
:040388002603000048
:020000040000fa
:04038c002603000044
:020000040000fa
:040390002603000040
:020000040000fa
:04039400260300003c
:020000040000fa
:040398002603000038
:020000040000fa
:04039c002603000034
:020000040000fa
:0403a0002603000030
:020000040000fa
:0403a400260300002c
:020000040000fa
:0403a8002603000028
:020000040000fa
:0403ac002603000024
:020000040000fa
:0403b0002603000020
:020000040000fa
:0403b400260300001c
:020000040000fa
:0403b8002603000018
:020000040000fa
:100400002f8220000eff27000e0188000000000050
:10041000000020000000e000020032000001200087
:100420002002880014000700ab0007000000e00075
:1004300003003a00e05b20000100200002003700ca
:100440000000200001002000810f70000100320038
:1004500014000700000020000000e000020032004d
:100460000000020000000000f00402000000000094
:100470000040da000000fe004440a90020032000f4
:100480000000e000030032000020200090018800fe
:100490004440a800000006008a1f78008b1f7800e7
:1004a00000000600a1028800800478000000eb0034
:1004b0001f003700e284440054a0b4009905ba003c
:1004c000e284440054a0b4009906ba00e2844400d7
:1004d00054a0b4000006eb00476fde00fd07b20039
:1004e000ae018800636ce10003003a00eaff0700f8
:1004f0000000eb000e003700606ce10008003a00dd
:10050000004deb000a05e800020039003420ec0041
:100510000af0a0008b05e900f9ff3e000400370057
:100520006168e100010032000086eb000b0007006b
:1005300019c7ba001905ba000e04e00003003a001a
:100540000a00e000dbff3a0000000600fe07b200f0
:10055000ae0288008a047800f5ff37000cd0a300b3
:10056000e20f4d001c00390089027800354dba00b9
:100570000a05e800020039003420ec000af0a0006f
:100580008b05e9000f003200254dba000a05e8008e
:10059000020039003420ec000af0a0008b05e900cd
:1005a000080032000c00e0000600320015cdba0051
:1005b0000a05e800020039003420ec000af0a0002f
:1005c0008b05e9008984e80054a0b4000b00e0002a
:1005d000e2ff3a00000006009902ba00055d7800cb
:1005e0008b05e900f7ff3200c82ade00055d7800c0
:1005f0008b05e900f3ff32000c00e000f1ff320050
:1006000019ddba00eeff37003600f8008020a9009f
:100610000000eb004e0107003600f8005001070013
:100620008040a90010002000490107003600f800b2
:100630008060a90020002000450107003600f80076
:100640008080a90030002000410107000040da004e
:100650000000fe000800fa0010079800210798002b
:1006600032079800000000001111800000102000e7
:10067000008060000000e000fbff3200be00900040
:10068000010f78000e0037000000000011118000fb
:1006900000102000008060000000e000fbff32003e
:1006a0002e009000104078000000fb002011880010
:1006b0002e0090000000e800200798001e0fe900bf
:1006c0001e0078000000e000efff3a003e009000be
:0c06d0000080fa00000006000000050099
:020000040000fa
:1006dc00546800006973000020690000732000005a
:1006ec006d790000206600006972000073740000d0
:1006fc0020550000415200005420000044650000c9
:10070c006d6f00002e200000507200006573000019
:10071c007320000059200000746f0000207200004c
:10072c006570000065610000742e00000a00000076
:04073c0000000000b9
:020000040000fa
:100740000000fa00c422ef00cc22ef00d422ef0018
:10075000dc22ef00e422ef00ec22ef00f422ef00b5
:10076000f06f2c00001688000080eb004016880017
:10077000e0012700801688000080eb00c01688008a
:10078000f03f200000178800701b230040178800ee
:10079000f03c2f00801788005620ef005820ef0013
:1007a0005a20ef005c20ef005e20ef006020ef0099
:1007b0006e20ef007020ef007220ef007420ef0039
:1007c0007620ef007820ef00c622ef00ce22ef0067
:1007d000d622ef00de22ef00e622ef00ee22ef004d
:1007e000f622ef00006c200000278800c0ff2f00d9
:1007f000102788000001260020278800000c200018
:1008000030278800002020004027880010002000aa
:1008100050278800003c200060278800a804a8001a
:10082000113a8000f00b200000816000600420007d
:1008300071052000237420008049780081497800e8
:10084000824978008136800000fc2f000080600023
:100850003000b300803688002135800000fc2f0076
:1008600000806000b000b30020358800103a80009e
:10087000000178000260a0006004200071052000e3
:1008800023742000804978008149780082497800eb
:100890000080fa00000006000000fa00800020003e
:1008a000001188002222ef00300320004011880050
:1008b00021e2a8002342a8000080fa000000060000
:1008c0000000fa0021048000000021000080600088
:1008d0000000e000070032001111800000402000fd
:1008e000008060000000e0000200320010002000e4
:1008f000010037000000eb00004078000080fa00a3
:10090000000006000000fa00200480004b00de001a
:10091000614060000080fb0000f0a7000000ea00da
:100920000000ea004f00de00004078000080fa007e
:10093000000006000000fa00101180004800de00f0
:10094000614060000080fb0000f0a7000000ea00aa
:100950000000ea004f00de00004078000080fa004e
:10096000000006000000fa000000000010118000e6
:10097000610060000000e000fcff32001011800008
:10098000620060000000e000010032002222a900a5
:1009900030118000004078000080fa00000006005e
:1009a0000200fa00004f78000000000011118000e2
:1009b00000202000008060000000e000fbff3a0003
:1009c0001e80fb00201188000080fa000000060055
:1009d0000000fa00101180000080fa0000000600fc
:1009e0003600fa00e0362800e30047002f00090037
:1009f000b05878000003b1008e0078003103b000d9
:100a0000010009008058eb00630f47000040eb0035
:100a1000204798006100070007003700a8ff070083
:100a20000004e000040032001e007800104078004e
:100a30001e0fe800daff07001e0078001040780063
:100a4000ea4f5000f5ff3a00c6ff07002047980024
:100a50002e4090000004e0000f003200a0c0b30060
:100a6000cfff07002e409000cdff0700ae40900062
:100a700090c7b30080cf500004003200ae40900019
:100a800090c5b30080cf500003003a00630f4700c9
:100a9000a0c0b300c2ff070000fa20000100200040
:100aa0001d00070000000000e3ff37000000fa000f
:100ab00000102300203a88004627ef004827ef0067
:100ac0007027ef007227ef007427ef007627ef0002
:100ad0007827ef007a27ef007200200080072000bf
:100ae000a1092000337420008049780081497800f2
:100af000824978000001eb006004200071052000ad
:100b00002374200080497800814978008249780068
:080b10000080fa00000006005d
:020000040000fa
:100b1800f03fb1000180b10006003500ee03090086
:100b280000000000403fb1000180b100fbff3d0024
:100b38001000b000203fb00002003500008009001e
:080b480000000000000006009f
:020000040000fa
:100b5000000f78009e00780001408800ffff3700fa
:100b60000000fa002080200080077800a08120008b
:0c0b7000000188000080fa000000060070
:020000040000fa
:100b7c0002080000200000008000000000080000b7
:100b8c000200000082000000ffff000000000000d7
:020000040000fa
:100b9c000000fa00e7fe070008000700c0ff07008e
:100bac003aff07000080fa00000006000000fa007f
:100bbc00bbff07000080fa00000006000000fa00ee
:080bcc000080fa0000000600a1
:020000040000fa
:020000040005f5
:0457f400fffc0000b6
:020000040000fa
:020000040005f5
:0457f800bfff0000ef
:020000040000fa
:020000040005f5
:0457fc007f3f0000eb
:00000001FF
