:020000040000fa
:080000000002040000000000f2
:020000040000fa
:0400080026030000cb
:020000040000fa
:04000c0004030000e9
:020000040000fa
:0400100016030000d3
:020000040000fa
:040014000c030000d9
:020000040000fa
:040018001e030000c3
:020000040000fa
:04001c0026030000b7
:020000040000fa
:0400200026030000b3
:020000040000fa
:0400240026030000af
:020000040000fa
:0400280026030000ab
:020000040000fa
:04002c0026030000a7
:020000040000fa
:0400300026030000a3
:020000040000fa
:04003400260300009f
:020000040000fa
:04003800260300009b
:020000040000fa
:04003c002603000097
:020000040000fa
:040040002603000093
:020000040000fa
:04004400260300008f
:020000040000fa
:04004800260300008b
:020000040000fa
:04004c002603000087
:020000040000fa
:040050002603000083
:020000040000fa
:04005400260300007f
:020000040000fa
:04005800260300007b
:020000040000fa
:04005c002603000077
:020000040000fa
:040060002603000073
:020000040000fa
:04006400260300006f
:020000040000fa
:04006800260300006b
:020000040000fa
:04006c002603000067
:020000040000fa
:040070002603000063
:020000040000fa
:04007400260300005f
:020000040000fa
:04007800260300005b
:020000040000fa
:04007c002603000057
:020000040000fa
:040080002603000053
:020000040000fa
:04008400260300004f
:020000040000fa
:04008800260300004b
:020000040000fa
:04008c002603000047
:020000040000fa
:040090002603000043
:020000040000fa
:04009400260300003f
:020000040000fa
:04009800260300003b
:020000040000fa
:04009c002603000037
:020000040000fa
:0400a0002603000033
:020000040000fa
:0400a400260300002f
:020000040000fa
:0400a800260300002b
:020000040000fa
:0400ac002603000027
:020000040000fa
:0400b0002603000023
:020000040000fa
:0400b400260300001f
:020000040000fa
:0400b800260300001b
:020000040000fa
:0400bc002603000017
:020000040000fa
:0400c0002603000013
:020000040000fa
:0400c400260300000f
:020000040000fa
:0400c800260300000b
:020000040000fa
:0400cc002603000007
:020000040000fa
:0400d0002603000003
:020000040000fa
:0400d40026030000ff
:020000040000fa
:0400d80026030000fb
:020000040000fa
:0400dc0026030000f7
:020000040000fa
:0400e00026030000f3
:020000040000fa
:0400e40026030000ef
:020000040000fa
:0400e80026030000eb
:020000040000fa
:0400ec0026030000e7
:020000040000fa
:0400f00026030000e3
:020000040000fa
:0400f40026030000df
:020000040000fa
:0400f80026030000db
:020000040000fa
:0400fc0026030000d7
:020000040000fa
:0401000026030000d2
:020000040000fa
:0401040026030000ce
:020000040000fa
:0401080026030000ca
:020000040000fa
:04010c0026030000c6
:020000040000fa
:0401100026030000c2
:020000040000fa
:0401140026030000be
:020000040000fa
:0401180026030000ba
:020000040000fa
:04011c0026030000b6
:020000040000fa
:0401200026030000b2
:020000040000fa
:0401240026030000ae
:020000040000fa
:0401280026030000aa
:020000040000fa
:04012c0026030000a6
:020000040000fa
:0401300026030000a2
:020000040000fa
:04013400260300009e
:020000040000fa
:04013800260300009a
:020000040000fa
:04013c002603000096
:020000040000fa
:040140002603000092
:020000040000fa
:04014400260300008e
:020000040000fa
:04014800260300008a
:020000040000fa
:04014c002603000086
:020000040000fa
:040150002603000082
:020000040000fa
:04015400260300007e
:020000040000fa
:04015800260300007a
:020000040000fa
:04015c002603000076
:020000040000fa
:040160002603000072
:020000040000fa
:04016400260300006e
:020000040000fa
:04016800260300006a
:020000040000fa
:04016c002603000066
:020000040000fa
:040170002603000062
:020000040000fa
:04017400260300005e
:020000040000fa
:04017800260300005a
:020000040000fa
:04017c002603000056
:020000040000fa
:040180002603000052
:020000040000fa
:04018400260300004e
:020000040000fa
:04018800260300004a
:020000040000fa
:04018c002603000046
:020000040000fa
:040190002603000042
:020000040000fa
:04019400260300003e
:020000040000fa
:04019800260300003a
:020000040000fa
:04019c002603000036
:020000040000fa
:0401a0002603000032
:020000040000fa
:0401a400260300002e
:020000040000fa
:0401a800260300002a
:020000040000fa
:0401ac002603000026
:020000040000fa
:0401b0002603000022
:020000040000fa
:0401b400260300001e
:020000040000fa
:0401b800260300001a
:020000040000fa
:0402080026030000c9
:020000040000fa
:04020c0026030000c5
:020000040000fa
:0402100026030000c1
:020000040000fa
:0402140026030000bd
:020000040000fa
:0402180026030000b9
:020000040000fa
:04021c0026030000b5
:020000040000fa
:0402200026030000b1
:020000040000fa
:0402240026030000ad
:020000040000fa
:0402280026030000a9
:020000040000fa
:04022c0026030000a5
:020000040000fa
:0402300026030000a1
:020000040000fa
:04023400260300009d
:020000040000fa
:040238002603000099
:020000040000fa
:04023c002603000095
:020000040000fa
:040240002603000091
:020000040000fa
:04024400260300008d
:020000040000fa
:040248002603000089
:020000040000fa
:04024c002603000085
:020000040000fa
:040250002603000081
:020000040000fa
:04025400260300007d
:020000040000fa
:040258002603000079
:020000040000fa
:04025c002603000075
:020000040000fa
:040260002603000071
:020000040000fa
:04026400260300006d
:020000040000fa
:040268002603000069
:020000040000fa
:04026c002603000065
:020000040000fa
:040270002603000061
:020000040000fa
:04027400260300005d
:020000040000fa
:040278002603000059
:020000040000fa
:04027c002603000055
:020000040000fa
:040280002603000051
:020000040000fa
:04028400260300004d
:020000040000fa
:040288002603000049
:020000040000fa
:04028c002603000045
:020000040000fa
:040290002603000041
:020000040000fa
:04029400260300003d
:020000040000fa
:040298002603000039
:020000040000fa
:04029c002603000035
:020000040000fa
:0402a0002603000031
:020000040000fa
:0402a400260300002d
:020000040000fa
:0402a8002603000029
:020000040000fa
:0402ac002603000025
:020000040000fa
:0402b0002603000021
:020000040000fa
:0402b400260300001d
:020000040000fa
:0402b8002603000019
:020000040000fa
:0402bc002603000015
:020000040000fa
:0402c0002603000011
:020000040000fa
:0402c400260300000d
:020000040000fa
:0402c8002603000009
:020000040000fa
:0402cc002603000005
:020000040000fa
:0402d0002603000001
:020000040000fa
:0402d40026030000fd
:020000040000fa
:0402d80026030000f9
:020000040000fa
:0402dc0026030000f5
:020000040000fa
:0402e00026030000f1
:020000040000fa
:0402e40026030000ed
:020000040000fa
:0402e80026030000e9
:020000040000fa
:0402ec0026030000e5
:020000040000fa
:0402f00026030000e1
:020000040000fa
:0402f40026030000dd
:020000040000fa
:0402f80026030000d9
:020000040000fa
:0402fc0026030000d5
:020000040000fa
:0403000026030000d0
:020000040000fa
:0403040026030000cc
:020000040000fa
:0403080026030000c8
:020000040000fa
:04030c0026030000c4
:020000040000fa
:0403100026030000c0
:020000040000fa
:0403140026030000bc
:020000040000fa
:0403180026030000b8
:020000040000fa
:04031c0026030000b4
:020000040000fa
:0403200026030000b0
:020000040000fa
:0403240026030000ac
:020000040000fa
:0403280026030000a8
:020000040000fa
:04032c0026030000a4
:020000040000fa
:0403300026030000a0
:020000040000fa
:04033400260300009c
:020000040000fa
:040338002603000098
:020000040000fa
:04033c002603000094
:020000040000fa
:040340002603000090
:020000040000fa
:04034400260300008c
:020000040000fa
:040348002603000088
:020000040000fa
:04034c002603000084
:020000040000fa
:040350002603000080
:020000040000fa
:04035400260300007c
:020000040000fa
:040358002603000078
:020000040000fa
:04035c002603000074
:020000040000fa
:040360002603000070
:020000040000fa
:04036400260300006c
:020000040000fa
:040368002603000068
:020000040000fa
:04036c002603000064
:020000040000fa
:040370002603000060
:020000040000fa
:04037400260300005c
:020000040000fa
:040378002603000058
:020000040000fa
:04037c002603000054
:020000040000fa
:040380002603000050
:020000040000fa
:04038400260300004c
:020000040000fa
:040388002603000048
:020000040000fa
:04038c002603000044
:020000040000fa
:040390002603000040
:020000040000fa
:04039400260300003c
:020000040000fa
:040398002603000038
:020000040000fa
:04039c002603000034
:020000040000fa
:0403a0002603000030
:020000040000fa
:0403a400260300002c
:020000040000fa
:0403a8002603000028
:020000040000fa
:0403ac002603000024
:020000040000fa
:0403b0002603000020
:020000040000fa
:0403b400260300001c
:020000040000fa
:0403b8002603000018
:020000040000fa
:10040000af8220000eff27000e01880000000000d0
:10041000000020000000e000020032000001200087
:1004200020028800140007008a0007000000e00096
:1004300003003a00007b200001002000020037008a
:100440000000200001002000810f70000100320038
:1004500014000700000020000000e000020032004d
:100460000000020000000000380702000000000049
:100470000040da000000fe004440a90020002000f7
:100480000000e0000300320010002000900188000e
:100490004440a800000006008a1f78008b1f7800e7
:1004a00000000600a1028800800478000000eb0034
:1004b0001f003700e284440054a0b4009905ba003c
:1004c000e284440054a0b4009906ba00e2844400d7
:1004d00054a0b4000006eb00476fde00fd07b20039
:1004e000ae018800636ce10003003a00eaff0700f8
:1004f0000000eb000e003700606ce10008003a00dd
:10050000004deb000a05e800020039003420ec0041
:100510000af0a0008b05e900f9ff3e000400370057
:100520006168e100010032000086eb000b0007006b
:1005300019c7ba001905ba000e04e00003003a001a
:100540000a00e000dbff3a0000000600fe07b200f0
:10055000ae0288008a047800f5ff37000cd0a300b3
:10056000e20f4d001c00390089027800354dba00b9
:100570000a05e800020039003420ec000af0a0006f
:100580008b05e9000f003200254dba000a05e8008e
:10059000020039003420ec000af0a0008b05e900cd
:1005a000080032000c00e0000600320015cdba0051
:1005b0000a05e800020039003420ec000af0a0002f
:1005c0008b05e9008984e80054a0b4000b00e0002a
:1005d000e2ff3a00000006009902ba00055d7800cb
:1005e0008b05e900f7ff3200c82ade00055d7800c0
:1005f0008b05e900f3ff32000c00e000f1ff320050
:1006000019ddba00eeff37003600f8008020a9009f
:100610000000eb00660207003600f80068020700e1
:100620008040a90010002000610207003600f80099
:100630008060a900200020005d0207003600f8005d
:100640008080a90030002000590207000040da0035
:100650000000fe0000000500839f68000100e0002c
:1006600002003d0060001000e08018000300e00080
:1006700002003d0060011100e08119000500070043
:100680004f00e00002003b0060001000e080180016
:10069000000006006022b800060220000000d00022
:1006a0008180d2000482d2008582d2000000a000a6
:1006b0000202520083825a0003003100020242000b
:1006c00083824a000000a1000603e900f3ff3a001c
:0406d0000000060020
:020000040000fa
:1006d4000000fa0060002100800c8800b0002000b7
:1006e400900c880080382100a00c8800409c2000d9
:1006f400b00c8800800c80000040780067406000e7
:100704000080fb00204088000080fa000000060002
:100714000000fa000080fa00000006000000fa0061
:1007240020048000640060000000e0000200320049
:10073400f7ff07008440a9000080fa0000000600cb
:100744000000fa002040800000407800674060000c
:100754000080fb0067006000820c800081ff2f0096
:100764008100610001007000800c88000080fa00a4
:10077400000006000000fa00810c800080ff2f00ba
:1007840000806000800c88000080fa0000000600f1
:100794000200fa00000f78009e007800b10c880077
:1007a4000080fa00000006000400fa00000f780040
:1007b400110798009e007800b10c88009e009000fc
:1007c400a10c88000080fa00000006000400fa0072
:1007d400000f7800110798009e007800b10c880083
:1007e4009e009000a10c88000080fa000000060022
:1007f4000400fa00000f7800110798009e007800aa
:10080400b10c88009e009000a10c88000080fa00c2
:10081400000006000200fa00000f78009e00780035
:10082400a10c88000080fa00000006000200fa0013
:10083400000f78009e007800b10c88000080fa0058
:10084400000006000000fa00200480004200de00e0
:10085400614060000080fb0000f0a7000000ea0097
:100864000000ea004f00de00004078000080fa003b
:10087400000006000400fa00100798001e00900013
:10088400e10f50000f003200e10f50000300390067
:10089400e20f5000150032001e003700800c80006b
:1008a4004400de00614060000080fb0000f0a7000f
:1008b4000000ea000000ea004f00de00004f78006c
:1008c40014003700800c80004500de0061406000a9
:1008d4000080fb0000f0a7000000ea000000ea002e
:1008e4004f00de00004f78000a003700800c8000c3
:1008f4004600de00614060000080fb0000f0a700bd
:100904000000ea000000ea004f00de00004f78001b
:10091400000000001e4078000080fa00000006007d
:100924000200fa00000f78001e007800e10f50006a
:1009340007003200e10f500003003900e20f5000bd
:1009440005003200060037009081a900040037003a
:1009540090a1a9000200370090c1a9000000000086
:100964000080fa00000006000000fa0092c1a8000e
:100974000080fa00000006000000fa00900c8000dd
:100984004600de00614060000080fb0000f0a7002c
:100994000000ea000000ea004f00de00004078009a
:1009a4000080fa00000006000000fa0092c1a900cd
:1009b4000080fa00000006000000fa00400e280043
:1009c40000198800404020001019880000f0200021
:1009d400201988002823ef002e23ef0000022000b6
:1009e40080198800de24ef00101980004200de0028
:1009f4007f40600002e8b7000080fa0000000600b3
:100a04000000fa002023a8000080fa00000006007d
:100a14000000fa002023a9000080fa00000006006c
:100a24000600fa0020079800003020001007980004
:100a34000000eb00000f78000b0037001e00780068
:100a440000004000ae009000008040009e00900036
:100a540091007800010878001e0090000080e800f2
:100a6400100798001e0fe80002c8bf000080fb00ba
:100a74009e0f5000f1ff3d001e0078000080fa0038
:100a8400000006000000fa00001880000080fa0050
:100a9400000006000000fa00001980000040780001
:100aa400614060000080fb0000f0a7000000ea0045
:100ab4000000ea004f00de00004078000080fa00e9
:100ac400000006000200fa00000f78009e00780083
:100ad400411988000080fa00000006000200fa00b4
:100ae400000f78001e007800f6ff0700c4ff07001f
:100af400c7ff070000000000e6ff07000004a20093
:100b04000004e000fcff3a00deff07000080fa006a
:100b1400000006000000fa0085a0a9000080fa0089
:100b2400000006000000fa000021ef0080382100d8
:100b34001008880000012800200888008082200016
:100b44008040eb00014878000080fa0000000600b5
:100b54000000fa0020048000680060000000e0004b
:100b64000900320090822000104078008040e800a4
:100b740090822000014878008082200011c0b300d8
:100b8400014878008460a9000080fa000000060093
:100b94000200fa00000f78009e0078001108880017
:100ba400808220008040eb00014878000080fa0039
:100bb400000006000000fa00100880000080fa001f
:100bc400000006000200fa00000f78009e00780082
:100bd40001088800808220008040eb0001487800f2
:100be4000080fa00000006000000fa0000088000ff
:100bf4000080fa00000006000000fa008082200055
:100c04008040eb000148780005e1a8000080fa006c
:100c1400000006000000fa0005e1a9000080fa00c7
:100c2400000006000200fa0080822000104f7800c5
:100c34001e4078000004e00003003200808220009f
:100c44008040eb00014878001e4078000080fa00e4
:100c5400000006000000fa00908220001040780096
:100c64000080fb000080fa00000006000000fa008b
:100c7400908220008040eb00014878000080fa0058
:100c8400000006000000fa00c422ef00cc22ef00ae
:100c9400d422ef00dc22ef00e422ef00ec22ef008c
:100ca400f422ef00f0672c00001688000080eb00af
:100cb40040168800e0012f00801688000080eb00b9
:100cc400c0168800f03f200000178800f01b2300a6
:100cd40040178800f02c2f00801788005620ef0062
:100ce4005820ef005a20ef005c20ef005e20ef0058
:100cf4006020ef006e20ef007020ef007220ef0004
:100d04007420ef007620ef007820ef00c622ef0079
:100d1400ce22ef00d622ef00de22ef00e622ef0023
:100d2400ee22ef00f622ef00006420000027880086
:100d3400f0f32f00102788000001260020278800e8
:100d4400000c200030278800002020004027880065
:100d54001000200050278800002c20006027880005
:100d6400a804a800113a8000f00b20000081600064
:100d7400600420007105200023742000804978005d
:100d8400814978008249780091368000f00f2c0068
:100d940080806000002021000100700090368800ef
:100da400103a8000000178000260a0006004200076
:100db400710520002374200080497800814978005f
:100dc400824978000080fa00000006001000fa0052
:100dd400008fbe002207980033079800440798004c
:100de4005507980066079800770798002e00900032
:100df400be0090003e011000ae8118003eba97007c
:100e0400ceba97006e009000fe00900000005200e1
:100e140081805a00009ab90004027800028bb9005c
:100e240086027800050242000010b8000102420068
:100e3400840078004e029000de0290002e019000a3
:100e4400be0190000201520083815a0001fe070096
:100e54000001be006e009000fe0090000200400001
:100e6400838048000080fa00000006000800fa00b1
:100e74000000eb00000f78000000eb001007980062
:100e84000000eb00200798000000eb0030079800fa
:100e94005100070000000000fefe07000004a2004d
:100ea4000004e000fcff3a00f6fe0700200798006b
:100eb4002e0090008000eb00823821000300200007
:100ec400829fbe006033b80004402000050020006b
:100ed4006011b800bdff0700e48757003007980091
:100ee4003e00900051fe070000000000eaff3700ba
:100ef4000000fa0000102300203a88004627ef0083
:100f04004827ef007027ef007227ef007427ef00e7
:100f14007627ef007827ef007a27ef000001eb0037
:100f240080072000a1092000337420008049780044
:100f340081497800824978000001eb0060042000b8
:100f440071052000237420008049780081497800cd
:0c0f5400824978000080fa0000000600ce
:020000040000fa
:100f600008080000200000008000000000080000c9
:100f70000200000082000000ffff000002080000e5
:100f800002000000800000000408000002000000d1
:100f9000800000002808000002000000800000001f
:100fa00006080000020000008000000000000000b1
:020000040000fa
:100fb000000f78009e00780001408800ffff370096
:100fc0000000fa0080802000800778000082200066
:100fd000000188000080fa00000006000000fa000e
:100fe00029ff0700c3ff07000900070073fe070081
:100ff000b8fd0700ccfe07000080fa0000000600e4
:101000000000fa00bbff07000080fa0000000600a5
:0c1010000000fa000080fa00000006005a
:020000040000fa
:020000040005f5
:0457f400fffc0000b6
:020000040000fa
:020000040005f5
:0457f8009ff8000016
:020000040000fa
:020000040005f5
:0457fc007f3e0000ec
:00000001FF
