:020000040000fa
:080000000002040000000000f2
:020000040000fa
:04000800ee03000003
:020000040000fa
:04000c0004030000e9
:020000040000fa
:0400100016030000d3
:020000040000fa
:040014000c030000d9
:020000040000fa
:040018001e030000c3
:020000040000fa
:04001c00ee030000ef
:020000040000fa
:04002000ee030000eb
:020000040000fa
:04002400ee030000e7
:020000040000fa
:04002800ee030000e3
:020000040000fa
:04002c00ee030000df
:020000040000fa
:04003000ee030000db
:020000040000fa
:04003400ee030000d7
:020000040000fa
:04003800ee030000d3
:020000040000fa
:04003c00ee030000cf
:020000040000fa
:04004000ee030000cb
:020000040000fa
:04004400ee030000c7
:020000040000fa
:04004800ee030000c3
:020000040000fa
:04004c00ee030000bf
:020000040000fa
:04005000ee030000bb
:020000040000fa
:040054009203000013
:020000040000fa
:04005800260300007b
:020000040000fa
:04005c00ee030000af
:020000040000fa
:04006000ee030000ab
:020000040000fa
:04006400ee030000a7
:020000040000fa
:04006800ee030000a3
:020000040000fa
:04006c00ee0300009f
:020000040000fa
:04007000ee0300009b
:020000040000fa
:04007400ee03000097
:020000040000fa
:04007800ee03000093
:020000040000fa
:04007c00ee0300008f
:020000040000fa
:04008000ee0300008b
:020000040000fa
:04008400ee03000087
:020000040000fa
:04008800ee03000083
:020000040000fa
:04008c00ee0300007f
:020000040000fa
:04009000ee0300007b
:020000040000fa
:04009400ee03000077
:020000040000fa
:04009800ee03000073
:020000040000fa
:04009c00ee0300006f
:020000040000fa
:0400a000ee0300006b
:020000040000fa
:0400a400ee03000067
:020000040000fa
:0400a800ee03000063
:020000040000fa
:0400ac00ee0300005f
:020000040000fa
:0400b000ee0300005b
:020000040000fa
:0400b400ee03000057
:020000040000fa
:0400b800ee03000053
:020000040000fa
:0400bc00ee0300004f
:020000040000fa
:0400c000ee0300004b
:020000040000fa
:0400c400ee03000047
:020000040000fa
:0400c800ee03000043
:020000040000fa
:0400cc00ee0300003f
:020000040000fa
:0400d000ee0300003b
:020000040000fa
:0400d400ee03000037
:020000040000fa
:0400d800ee03000033
:020000040000fa
:0400dc00ee0300002f
:020000040000fa
:0400e000ee0300002b
:020000040000fa
:0400e400ee03000027
:020000040000fa
:0400e800ee03000023
:020000040000fa
:0400ec00ee0300001f
:020000040000fa
:0400f000ee0300001b
:020000040000fa
:0400f400ee03000017
:020000040000fa
:0400f800ee03000013
:020000040000fa
:0400fc00ee0300000f
:020000040000fa
:04010000ee0300000a
:020000040000fa
:04010400ee03000006
:020000040000fa
:04010800ee03000002
:020000040000fa
:04010c00ee030000fe
:020000040000fa
:04011000ee030000fa
:020000040000fa
:04011400ee030000f6
:020000040000fa
:04011800ee030000f2
:020000040000fa
:04011c00ee030000ee
:020000040000fa
:04012000ee030000ea
:020000040000fa
:04012400ee030000e6
:020000040000fa
:04012800ee030000e2
:020000040000fa
:04012c00d8030000f4
:020000040000fa
:04013000ee030000da
:020000040000fa
:04013400ee030000d6
:020000040000fa
:04013800ee030000d2
:020000040000fa
:04013c00ee030000ce
:020000040000fa
:04014000ee030000ca
:020000040000fa
:04014400ee030000c6
:020000040000fa
:04014800ee030000c2
:020000040000fa
:04014c00ee030000be
:020000040000fa
:04015000ee030000ba
:020000040000fa
:04015400ee030000b6
:020000040000fa
:04015800ee030000b2
:020000040000fa
:04015c00ee030000ae
:020000040000fa
:04016000ee030000aa
:020000040000fa
:04016400ee030000a6
:020000040000fa
:04016800ee030000a2
:020000040000fa
:04016c00ee0300009e
:020000040000fa
:04017000ee0300009a
:020000040000fa
:04017400ee03000096
:020000040000fa
:04017800ee03000092
:020000040000fa
:04017c00ee0300008e
:020000040000fa
:04018000ee0300008a
:020000040000fa
:04018400ee03000086
:020000040000fa
:04018800ee03000082
:020000040000fa
:04018c00ee0300007e
:020000040000fa
:04019000ee0300007a
:020000040000fa
:04019400ee03000076
:020000040000fa
:04019800ee03000072
:020000040000fa
:04019c00ee0300006e
:020000040000fa
:0401a000ee0300006a
:020000040000fa
:0401a400ee03000066
:020000040000fa
:0401a800ee03000062
:020000040000fa
:0401ac00ee0300005e
:020000040000fa
:0401b000ee0300005a
:020000040000fa
:0401b400ee03000056
:020000040000fa
:0401b800ee03000052
:020000040000fa
:04020800ee03000001
:020000040000fa
:04020c00ee030000fd
:020000040000fa
:04021000ee030000f9
:020000040000fa
:04021400ee030000f5
:020000040000fa
:04021800ee030000f1
:020000040000fa
:04021c00ee030000ed
:020000040000fa
:04022000ee030000e9
:020000040000fa
:04022400ee030000e5
:020000040000fa
:04022800ee030000e1
:020000040000fa
:04022c00ee030000dd
:020000040000fa
:04023000ee030000d9
:020000040000fa
:04023400ee030000d5
:020000040000fa
:04023800ee030000d1
:020000040000fa
:04023c00ee030000cd
:020000040000fa
:04024000ee030000c9
:020000040000fa
:04024400ee030000c5
:020000040000fa
:04024800ee030000c1
:020000040000fa
:04024c00ee030000bd
:020000040000fa
:04025000ee030000b9
:020000040000fa
:04025400ee030000b5
:020000040000fa
:04025800ee030000b1
:020000040000fa
:04025c00ee030000ad
:020000040000fa
:04026000ee030000a9
:020000040000fa
:04026400ee030000a5
:020000040000fa
:04026800ee030000a1
:020000040000fa
:04026c00ee0300009d
:020000040000fa
:04027000ee03000099
:020000040000fa
:04027400ee03000095
:020000040000fa
:04027800ee03000091
:020000040000fa
:04027c00ee0300008d
:020000040000fa
:04028000ee03000089
:020000040000fa
:04028400ee03000085
:020000040000fa
:04028800ee03000081
:020000040000fa
:04028c00ee0300007d
:020000040000fa
:04029000ee03000079
:020000040000fa
:04029400ee03000075
:020000040000fa
:04029800ee03000071
:020000040000fa
:04029c00ee0300006d
:020000040000fa
:0402a000ee03000069
:020000040000fa
:0402a400ee03000065
:020000040000fa
:0402a800ee03000061
:020000040000fa
:0402ac00ee0300005d
:020000040000fa
:0402b000ee03000059
:020000040000fa
:0402b400ee03000055
:020000040000fa
:0402b800ee03000051
:020000040000fa
:0402bc00ee0300004d
:020000040000fa
:0402c000ee03000049
:020000040000fa
:0402c400ee03000045
:020000040000fa
:0402c800ee03000041
:020000040000fa
:0402cc00ee0300003d
:020000040000fa
:0402d000ee03000039
:020000040000fa
:0402d400ee03000035
:020000040000fa
:0402d800ee03000031
:020000040000fa
:0402dc00ee0300002d
:020000040000fa
:0402e000ee03000029
:020000040000fa
:0402e400ee03000025
:020000040000fa
:0402e800ee03000021
:020000040000fa
:0402ec00ee0300001d
:020000040000fa
:0402f000ee03000019
:020000040000fa
:0402f400ee03000015
:020000040000fa
:0402f800ee03000011
:020000040000fa
:0402fc00ee0300000d
:020000040000fa
:04030000ee03000008
:020000040000fa
:04030400ee03000004
:020000040000fa
:04030800ee03000000
:020000040000fa
:04030c00ee030000fc
:020000040000fa
:04031000ee030000f8
:020000040000fa
:04031400ee030000f4
:020000040000fa
:04031800ee030000f0
:020000040000fa
:04031c00ee030000ec
:020000040000fa
:04032000ee030000e8
:020000040000fa
:04032400ee030000e4
:020000040000fa
:04032800ee030000e0
:020000040000fa
:04032c00ee030000dc
:020000040000fa
:04033000ee030000d8
:020000040000fa
:04033400ee030000d4
:020000040000fa
:04033800ee030000d0
:020000040000fa
:04033c00ee030000cc
:020000040000fa
:04034000ee030000c8
:020000040000fa
:04034400ee030000c4
:020000040000fa
:04034800ee030000c0
:020000040000fa
:04034c00ee030000bc
:020000040000fa
:04035000ee030000b8
:020000040000fa
:04035400ee030000b4
:020000040000fa
:04035800ee030000b0
:020000040000fa
:04035c00ee030000ac
:020000040000fa
:04036000ee030000a8
:020000040000fa
:04036400ee030000a4
:020000040000fa
:04036800ee030000a0
:020000040000fa
:04036c00ee0300009c
:020000040000fa
:04037000ee03000098
:020000040000fa
:04037400ee03000094
:020000040000fa
:04037800ee03000090
:020000040000fa
:04037c00ee0300008c
:020000040000fa
:04038000ee03000088
:020000040000fa
:04038400ee03000084
:020000040000fa
:04038800ee03000080
:020000040000fa
:04038c00ee0300007c
:020000040000fa
:04039000ee03000078
:020000040000fa
:04039400ee03000074
:020000040000fa
:04039800ee03000070
:020000040000fa
:04039c00ee0300006c
:020000040000fa
:0403a000ee03000068
:020000040000fa
:0403a400ee03000064
:020000040000fa
:0403a800ee03000060
:020000040000fa
:0403ac00ee0300005c
:020000040000fa
:0403b000ee03000058
:020000040000fa
:0403b400ee03000054
:020000040000fa
:0403b800ee03000050
:020000040000fa
:10040000cf8320000eff27000e01880000000000af
:10041000000020000000e000020032000001200087
:100420002002880014000700fd0007000000e00023
:1004300003003a002087200001002000020037005e
:100440000000200001002000810f70000100320038
:1004500014000700000020000000e000020032004d
:1004600000000200000000009a07020000000000e7
:100470000040da000000fe004440a90020032000f4
:100480000000e000030032000020200090018800fe
:100490004440a800000006008a1f78008b1f7800e7
:1004a00000000600a1028800800478000000eb0034
:1004b0001f003700e284440054a0b4009905ba003c
:1004c000e284440054a0b4009906ba00e2844400d7
:1004d00054a0b4000006eb00476fde00fd07b20039
:1004e000ae018800636ce10003003a00eaff0700f8
:1004f0000000eb000e003700606ce10008003a00dd
:10050000004deb000a05e800020039003420ec0041
:100510000af0a0008b05e900f9ff3e000400370057
:100520006168e100010032000086eb000b0007006b
:1005300019c7ba001905ba000e04e00003003a001a
:100540000a00e000dbff3a0000000600fe07b200f0
:10055000ae0288008a047800f5ff37000cd0a300b3
:10056000e20f4d001c00390089027800354dba00b9
:100570000a05e800020039003420ec000af0a0006f
:100580008b05e9000f003200254dba000a05e8008e
:10059000020039003420ec000af0a0008b05e900cd
:1005a000080032000c00e0000600320015cdba0051
:1005b0000a05e800020039003420ec000af0a0002f
:1005c0008b05e9008984e80054a0b4000b00e0002a
:1005d000e2ff3a00000006009902ba00055d7800cb
:1005e0008b05e900f7ff3200c82ade00055d7800c0
:1005f0008b05e900f3ff32000c00e000f1ff320050
:1006000019ddba00eeff37003600f8008020a9009f
:100610000000eb00a80207003600f800aa0207005d
:100620008040a90010002000a30207003600f80057
:100630008060a900200020009f0207003600f8001b
:100640008080a900300020009b020700809fbe0030
:100650000000fa004141800030418000808f50004e
:1006600010003a005141800000102000008060001e
:100670000000e0000b003a000000000011118000b3
:1006800000102000008060000000e000fbff32004e
:10069000504180000090a000504188009580a90042
:1006a0001d0037008580a9001400370040418000fc
:1006b000104078000080fb0020118800404180003d
:1006c0000000e80040418800414180004083200054
:1006d000808f500002003a00c08220004041880014
:1006e000504180000080a1005041880041418000bd
:1006f00030418000808f50000600320011118000d0
:1007000000202000008060000000e000e7ff3200d1
:1007100001003700000000000080fa004f00be001a
:1007200000400600809fbe000000fa00180037005d
:10073000104180003111800081407800014878002c
:10074000104180000000e800104188001141800045
:10075000c0832000808f500002003a0040832000b8
:1007600010418800504180000010a10050418800d5
:100770001141800020418000808f500004003a0029
:10078000504180000000a000504188000400370064
:1007900010118000610060000000e000e4ff3a00fa
:1007a0008560a9000080fa004f00be0000400600ee
:1007b000801f78000000fa001011800062006000c5
:1007c0000000e000010032002222a9008c20a900d4
:1007d0000080fa004f007800004006000040da0078
:1007e0000000fe000600fa00000f780011079800d4
:1007f0002207980000000000111180000010200066
:10080000008060000000e000fbff32001e0090004e
:10081000ae0090008a0007000080fa000000060089
:0408200000000500cf
:020000040000fa
:100824000a54000068690000732000006973000026
:10083400206d00007920000073650000636f0000e4
:100844006e64000020550000415200005420000056
:10085400446500006d6f00002e2000004563000019
:10086400686f00002073000074610000727400005f
:10087400732000006e6f0000772e0000000000005f
:040884000000000070
:020000040000fa
:100888000000fa0080002000001188002222ef00fa
:1008980070062000401188009560a80043010700f9
:1008a800c082200040418800c0822000304188007a
:1008b80040832000204188004083200010418800a8
:1008c800504180000010a000504188005041800035
:1008d8000090a00050418800504180000080a10095
:1008e80050418800504180000000a100504188001c
:1008f8000080fa00000006000200fa000040eb0049
:10090800004f780020418000104f7800204180007f
:100918000000e8002041880021418000c0832000b9
:10092800808f500002003a00408320002041880058
:100938002141800010418000808f500003003a0060
:10094800504180000010a0005041880050418000b4
:100958000000a100504188001e4078000080fa0085
:10096800000006000600fa00881f780010079800ab
:10097800210798000000eb00000f780009003700fd
:1009880050418000620060000000e0000a003a0068
:100998001e0090001e044000d7ff0700004c78009e
:1009a8001e0fe8002e0090009e007800808f5000f7
:1009b800f3ff390001003700000000001e00780036
:1009c8004f0478000080fa00000006000200fa00d8
:1009d800004f78009580a900304180001e487800bb
:1009e800304180000000e80030418800314180003b
:1009f80040832000808f500002003a00c08220000f
:100a080030418800504180000090a100504188008a
:100a18004141800030418000808f500003003a003f
:100a2800504180000080a000504188009580a800b7
:100a38000080fa00000006000600fa00100798007f
:100a4800210798000000eb00000f78000a0037002b
:100a58005141800000102000008060000000e0008c
:100a68000a003a001e0090001e0040001040780066
:100a78001e0fe800d5ff07002e0090009e007800aa
:100a8800808f5000f2ff390001003700000000009d
:100a98001e0078000080fa00000006000200fa003c
:100aa8000000eb00000f780051418000002020007a
:100ab800008060000000e000010032001e40a0003d
:100ac8005141800000102000008060000000e0001c
:100ad800010032001e30a00050418000610060001b
:100ae8000000e000010032001e00a000504180001c
:100af800620060000000e000020032001e20a0003a
:100b0800010037001e10a0001e0078000080fa00c7
:100b1800000006000200fa00000f78002041800063
:100b28009e004000c0832000808f500008003900dc
:100b3800204180009e004000c08320000000ea00a1
:100b480000804000418320006140780003003700a6
:100b5800204180001e004000104078000080fa000c
:100b6800000006000800fa002007980031079800e6
:100b78000000eb001007980010c0b300004f780089
:100b88003e009000e70f500007003e0050418000f3
:100b9800620060000000e00003003a002e009000b0
:100ba8000000e00003003a000040eb00004f78002e
:100bb8003000370020418000800078003e0090001f
:100bc80080804000408320000000ea000080400050
:100bd80067006000100798002141800010418000e4
:100be800808f50000a003100214180003e009000b3
:100bf80080804000104180000000e900808f500094
:100c0800150036000040eb00004f78001200370056
:100c18002141800010418000808f50000e00360076
:100c28009e0090004083200080804000204180008a
:100c3800808f5000080031009e0090004083200003
:100c48008080400010418000808f500002003900f1
:100c58000040eb00004f78001e4078000004e000e0
:100c6800040032003e009000aaff0700ae0090008a
:100c7800804878001e4078000080fa0000000600d6
:100c88000000fa0050418000610060000000e000b0
:100c98000f003a002141800010418000808f5000f1
:100ca8000500360020418000800078001041800057
:100cb8000080500007003700204180008000780045
:100cc800104180000080500068004000010037009b
:100cd8000000eb000080fa00000006000000fa00a7
:100ce8005141800000102000008060000000e000fa
:100cf8000f003a004141800030418000808f500051
:100d080005003600404180008000780030418000b6
:100d180000805000070037004041800080007800c4
:100d2800304180000080500068004000010037001a
:100d38000000eb000080fa00000006000000fa0046
:100d4800504180000000d100614060000080fb003d
:100d580000f0a7000000ea000000ea004f00de00f3
:100d6800004078000080fa00000006000000fa0049
:100d7800504180004800de00614060000080fb00b8
:100d880000f0a7000000ea000000ea004f00de00c3
:100d9800004078000080fa00000006000000fa0019
:100da800101180000080fa00000006000000fa0020
:100db80021e2a8002342a8000080fa0000000600f3
:100dc8000000fa0021e2a9002342a9000080fa00ed
:100dd800000006000000fa00c422ef00cc22ef0059
:100de800d422ef00dc22ef00e422ef00ec22ef0037
:100df800f422ef00f06f2c00001688000080eb0052
:100e080040168800e0012f00801688000080eb0063
:100e1800c0168800f03f200000178800701b2300d0
:100e280040178800f03c2f00801788005620ef00fc
:100e38005820ef005a20ef005c20ef005e20ef0002
:100e48006020ef006e20ef007020ef007220ef00ae
:100e58007420ef007620ef007820ef00c622ef0024
:100e6800ce22ef00d622ef00de22ef00e622ef00ce
:100e7800ee22ef00f622ef00006c20000027880029
:100e8800f0f32f0010278800000126002027880093
:100e9800000c200030278800002020004027880010
:100ea8001000200050278800003c200060278800a0
:100eb800a804a800113a8000f00b2000008160000f
:100ec8006004200071052000237420008049780008
:100ed80081497800824978002135800000fc2f0084
:100ee80000806000b000b3002035880081368000a3
:100ef80000fc2f00008060003000b30080368800be
:100f0800103a8000000178000260a0006004200010
:100f180071052000237420008049780081497800f9
:100f2800824978000080fa00000006004400fa00b8
:100f380020412800ea0047002e000900b058780038
:100f4800f002b1008e0078009103b00002000900a1
:100f58008058eb000000eb00000f78000000eb0069
:100f680010079800e0022000200798008000200069
:100f780030079800640007000700370057ff070094
:100f880040079800ce0090006a0047001e0040000d
:100f9800a9fe07001e0f40002e0090009e0f500073
:100fa800f6ff3e00a0c0b30088fe0700010037002e
:100fb8000000000032ff0700100798001e00900094
:100fc800e70f5000faff3e00be0090001e009000a0
:100fd80080805000c00320000e00400061fe070022
:100fe800be0090001e00900080805000c0032000ca
:100ff8000e00400090fe0700eeff37000000fa00e8
:1010080000102300203a88004627ef004827ef0009
:101018007027ef007227ef007427ef007627ef00a4
:101028007827ef007a27ef000001eb008007200007
:10103800a109200033742000804978008149780094
:10104800824978000001eb0060042000710520004f
:10105800237420008049780081497800824978000b
:101068000080fa00000006000000fa002106800057
:10107800f0f82f00008060000040a00020068800e3
:101088005105800080ff2f00008060000000a00054
:101098005005880041058000f0ff280000806000ae
:1010a80000c0a000400588000080fa00000006008b
:1010b800000f78009e00780001408800ffff37008d
:1010c8000000fa002080200080077800a08120001e
:0c10d800000188000080fa000000060003
:020000040000fa
:1010e400020800002000000080000000000800004a
:1010f4000200000082000000ffff00002208000040
:0c1104001a000000800000000000000045
:020000040000fa
:101110000000fa0031ff0700baff0700d4ff070004
:10112000d9fd07000080fa00000006000000fa0068
:0c113000b4ff07000080fa000000060079
:020000040000fa
:020000040005f5
:0457f400fffc0000b6
:020000040000fa
:020000040005f5
:0457f8009ff8000016
:020000040000fa
:020000040005f5
:0457fc007f3e0000ec
:00000001FF
