:020000040000fa
:080000000002040000000000f2
:020000040000fa
:04000800b803000039
:020000040000fa
:04000c009603000057
:020000040000fa
:04001000a803000041
:020000040000fa
:040014009e03000047
:020000040000fa
:04001800b003000031
:020000040000fa
:04001c00b803000025
:020000040000fa
:04002000b803000021
:020000040000fa
:04002400b80300001d
:020000040000fa
:04002800b803000019
:020000040000fa
:04002c00b803000015
:020000040000fa
:04003000b803000011
:020000040000fa
:0400340008030000bd
:020000040000fa
:04003800b803000009
:020000040000fa
:04003c00b803000005
:020000040000fa
:04004000b803000001
:020000040000fa
:04004400b8030000fd
:020000040000fa
:04004800b8030000f9
:020000040000fa
:04004c00b8030000f5
:020000040000fa
:04005000b8030000f1
:020000040000fa
:04005400b8030000ed
:020000040000fa
:04005800b8030000e9
:020000040000fa
:04005c00b8030000e5
:020000040000fa
:04006000b8030000e1
:020000040000fa
:04006400b8030000dd
:020000040000fa
:04006800b8030000d9
:020000040000fa
:04006c00b8030000d5
:020000040000fa
:04007000b8030000d1
:020000040000fa
:04007400b8030000cd
:020000040000fa
:04007800b8030000c9
:020000040000fa
:04007c00b8030000c5
:020000040000fa
:04008000b8030000c1
:020000040000fa
:04008400b8030000bd
:020000040000fa
:04008800b8030000b9
:020000040000fa
:04008c00b8030000b5
:020000040000fa
:04009000b8030000b1
:020000040000fa
:04009400b8030000ad
:020000040000fa
:04009800b8030000a9
:020000040000fa
:04009c00b8030000a5
:020000040000fa
:0400a000b8030000a1
:020000040000fa
:0400a400b80300009d
:020000040000fa
:0400a800b803000099
:020000040000fa
:0400ac00b803000095
:020000040000fa
:0400b000b803000091
:020000040000fa
:0400b400b80300008d
:020000040000fa
:0400b800b803000089
:020000040000fa
:0400bc00b803000085
:020000040000fa
:0400c000b803000081
:020000040000fa
:0400c400b80300007d
:020000040000fa
:0400c800b803000079
:020000040000fa
:0400cc00b803000075
:020000040000fa
:0400d000b803000071
:020000040000fa
:0400d400b80300006d
:020000040000fa
:0400d800b803000069
:020000040000fa
:0400dc00b803000065
:020000040000fa
:0400e000b803000061
:020000040000fa
:0400e400b80300005d
:020000040000fa
:0400e800b803000059
:020000040000fa
:0400ec00b803000055
:020000040000fa
:0400f000b803000051
:020000040000fa
:0400f400b80300004d
:020000040000fa
:0400f800b803000049
:020000040000fa
:0400fc00b803000045
:020000040000fa
:04010000b803000040
:020000040000fa
:04010400b80300003c
:020000040000fa
:04010800b803000038
:020000040000fa
:04010c00b803000034
:020000040000fa
:04011000b803000030
:020000040000fa
:04011400b80300002c
:020000040000fa
:04011800b803000028
:020000040000fa
:04011c00b803000024
:020000040000fa
:04012000b803000020
:020000040000fa
:04012400b80300001c
:020000040000fa
:04012800b803000018
:020000040000fa
:04012c00b803000014
:020000040000fa
:04013000b803000010
:020000040000fa
:04013400b80300000c
:020000040000fa
:04013800b803000008
:020000040000fa
:04013c00b803000004
:020000040000fa
:04014000b803000000
:020000040000fa
:04014400b8030000fc
:020000040000fa
:04014800b8030000f8
:020000040000fa
:04014c00b8030000f4
:020000040000fa
:04015000b8030000f0
:020000040000fa
:04015400b8030000ec
:020000040000fa
:04015800b8030000e8
:020000040000fa
:04015c00b8030000e4
:020000040000fa
:04016000b8030000e0
:020000040000fa
:04016400b8030000dc
:020000040000fa
:04016800b8030000d8
:020000040000fa
:04016c00b8030000d4
:020000040000fa
:04017000b8030000d0
:020000040000fa
:04017400b8030000cc
:020000040000fa
:04017800b8030000c8
:020000040000fa
:04017c00b8030000c4
:020000040000fa
:04018000b8030000c0
:020000040000fa
:04018400b8030000bc
:020000040000fa
:04018800b8030000b8
:020000040000fa
:04018c00b8030000b4
:020000040000fa
:04019000b8030000b0
:020000040000fa
:04019400b8030000ac
:020000040000fa
:04019800b8030000a8
:020000040000fa
:04019c00b8030000a4
:020000040000fa
:0401a000b8030000a0
:020000040000fa
:0401a400b80300009c
:020000040000fa
:0401a800b803000098
:020000040000fa
:0401ac00b803000094
:020000040000fa
:0401b000b803000090
:020000040000fa
:0401b400b80300008c
:020000040000fa
:0401b800b803000088
:020000040000fa
:04020800b803000037
:020000040000fa
:04020c00b803000033
:020000040000fa
:04021000b80300002f
:020000040000fa
:04021400b80300002b
:020000040000fa
:04021800b803000027
:020000040000fa
:04021c00b803000023
:020000040000fa
:04022000b80300001f
:020000040000fa
:04022400b80300001b
:020000040000fa
:04022800b803000017
:020000040000fa
:04022c00b803000013
:020000040000fa
:04023000b80300000f
:020000040000fa
:04023400b80300000b
:020000040000fa
:04023800b803000007
:020000040000fa
:04023c00b803000003
:020000040000fa
:04024000b8030000ff
:020000040000fa
:04024400b8030000fb
:020000040000fa
:04024800b8030000f7
:020000040000fa
:04024c00b8030000f3
:020000040000fa
:04025000b8030000ef
:020000040000fa
:04025400b8030000eb
:020000040000fa
:04025800b8030000e7
:020000040000fa
:04025c00b8030000e3
:020000040000fa
:04026000b8030000df
:020000040000fa
:04026400b8030000db
:020000040000fa
:04026800b8030000d7
:020000040000fa
:04026c00b8030000d3
:020000040000fa
:04027000b8030000cf
:020000040000fa
:04027400b8030000cb
:020000040000fa
:04027800b8030000c7
:020000040000fa
:04027c00b8030000c3
:020000040000fa
:04028000b8030000bf
:020000040000fa
:04028400b8030000bb
:020000040000fa
:04028800b8030000b7
:020000040000fa
:04028c00b8030000b3
:020000040000fa
:04029000b8030000af
:020000040000fa
:04029400b8030000ab
:020000040000fa
:04029800b8030000a7
:020000040000fa
:04029c00b8030000a3
:020000040000fa
:0402a000b80300009f
:020000040000fa
:0402a400b80300009b
:020000040000fa
:0402a800b803000097
:020000040000fa
:0402ac00b803000093
:020000040000fa
:0402b000b80300008f
:020000040000fa
:0402b400b80300008b
:020000040000fa
:0402b800b803000087
:020000040000fa
:0402bc00b803000083
:020000040000fa
:0402c000b80300007f
:020000040000fa
:0402c400b80300007b
:020000040000fa
:0402c800b803000077
:020000040000fa
:0402cc00b803000073
:020000040000fa
:0402d000b80300006f
:020000040000fa
:0402d400b80300006b
:020000040000fa
:0402d800b803000067
:020000040000fa
:0402dc00b803000063
:020000040000fa
:0402e000b80300005f
:020000040000fa
:0402e400b80300005b
:020000040000fa
:0402e800b803000057
:020000040000fa
:0402ec00b803000053
:020000040000fa
:0402f000b80300004f
:020000040000fa
:0402f400b80300004b
:020000040000fa
:0402f800b803000047
:020000040000fa
:0402fc00b803000043
:020000040000fa
:04030000b80300003e
:020000040000fa
:04030400b80300003a
:020000040000fa
:04030800b803000036
:020000040000fa
:04030c00b803000032
:020000040000fa
:04031000b80300002e
:020000040000fa
:04031400b80300002a
:020000040000fa
:04031800b803000026
:020000040000fa
:04031c00b803000022
:020000040000fa
:04032000b80300001e
:020000040000fa
:04032400b80300001a
:020000040000fa
:04032800b803000016
:020000040000fa
:04032c00b803000012
:020000040000fa
:04033000b80300000e
:020000040000fa
:04033400b80300000a
:020000040000fa
:04033800b803000006
:020000040000fa
:04033c00b803000002
:020000040000fa
:04034000b8030000fe
:020000040000fa
:04034400b8030000fa
:020000040000fa
:04034800b8030000f6
:020000040000fa
:04034c00b8030000f2
:020000040000fa
:04035000b8030000ee
:020000040000fa
:04035400b8030000ea
:020000040000fa
:04035800b8030000e6
:020000040000fa
:04035c00b8030000e2
:020000040000fa
:04036000b8030000de
:020000040000fa
:04036400b8030000da
:020000040000fa
:04036800b8030000d6
:020000040000fa
:04036c00b8030000d2
:020000040000fa
:04037000b8030000ce
:020000040000fa
:04037400b8030000ca
:020000040000fa
:04037800b8030000c6
:020000040000fa
:04037c00b8030000c2
:020000040000fa
:04038000b8030000be
:020000040000fa
:04038400b8030000ba
:020000040000fa
:04038800b8030000b6
:020000040000fa
:04038c00b8030000b2
:020000040000fa
:04039000b8030000ae
:020000040000fa
:04039400b8030000aa
:020000040000fa
:04039800b8030000a6
:020000040000fa
:04039c00b8030000a2
:020000040000fa
:0403a000b80300009e
:020000040000fa
:0403a400b80300009a
:020000040000fa
:0403a800b803000096
:020000040000fa
:0403ac00b803000092
:020000040000fa
:0403b000b80300008e
:020000040000fa
:0403b400b80300008a
:020000040000fa
:0403b800b803000086
:020000040000fa
:100400008f8220000eff27000e01880000000000f0
:10041000000020000000e000020032000001200087
:100420002002880014000700d30007000000e0004d
:1004300003003a00005220000100200002003700b3
:100440000000200001002000810f70000100320038
:1004500014000700000020000000e000020032004d
:10046000000002000000000078050200000000000b
:100470000040da000000fe004440a90020002000f7
:100480000000e0000300320010002000900188000e
:100490004440a800000006008a1f78008b1f7800e7
:1004a00000000600a1028800800478000000eb0034
:1004b0001f003700e284440054a0b4009905ba003c
:1004c000e284440054a0b4009906ba00e2844400d7
:1004d00054a0b4000006eb00476fde00fd07b20039
:1004e000ae018800636ce10003003a00eaff0700f8
:1004f0000000eb000e003700606ce10008003a00dd
:10050000004deb000a05e800020039003420ec0041
:100510000af0a0008b05e900f9ff3e000400370057
:100520006168e100010032000086eb000b0007006b
:1005300019c7ba001905ba000e04e00003003a001a
:100540000a00e000dbff3a0000000600fe07b200f0
:10055000ae0288008a047800f5ff37000cd0a300b3
:10056000e20f4d001c00390089027800354dba00b9
:100570000a05e800020039003420ec000af0a0006f
:100580008b05e9000f003200254dba000a05e8008e
:10059000020039003420ec000af0a0008b05e900cd
:1005a000080032000c00e0000600320015cdba0051
:1005b0000a05e800020039003420ec000af0a0002f
:1005c0008b05e9008984e80054a0b4000b00e0002a
:1005d000e2ff3a00000006009902ba00055d7800cb
:1005e0008b05e900f7ff3200c82ade00055d7800c0
:1005f0008b05e900f3ff32000c00e000f1ff320050
:1006000019ddba00eeff37001604040000000000f8
:100610003600f800809fbe00829fbe00849fbe000f
:10062000869fbe000000fa00104080000000e80035
:1006300010408800114080003000280000806000d9
:100640000000e00004003d000000e900c1ff2f00b1
:10065000008070000000e800e10f50001900320037
:10066000e10f500003003c000000e00010003200e9
:1006700019003700e20f500003003200e30f500072
:1006800006003200140037006116800000022000ce
:1006900000806800601688000f0037002117800076
:1006a0000020200000806800201788000a00370022
:1006b000a11780000010200000806800a0178800ab
:1006c0000500370021168000000820000080680027
:1006d0002016880000000000004080000000e000bc
:1006e0000200320000408000000001007082200003
:1006f000104078008040e8007082200001487800b7
:100700006082200011c0b300014878008460a90015
:100710000080fa004f03be004f02be004f01be0032
:100720004f00be003600f900004006003600f80019
:100730008020a9000000eb00cf0007003600f80081
:10074000d10007008040a90010002000ca00070067
:100750003600f8008060a90020002000c6000700d5
:100760003600f8008080a90030002000c200070099
:0c0770000040da000000fe000000050060
:020000040000fa
:10077c000000fa000021ef00b06120001008880092
:10078c000003280020088800004080000000e000e2
:10079c0002003a0060412000240007008460a90098
:1007ac009460a800608220008040eb000148780033
:1007bc000080fa00000006000200fa00000f78002a
:1007cc009e00780011088800608220008040eb00b9
:1007dc00014878000080fa00000006000000fa00d2
:1007ec00100880000080fa00000006000200fa00e9
:1007fc00000f78009e0078000108880060822000bd
:10080c008040eb00014878000080fa0000000600f0
:10081c000000fa00000880000080fa0000000600ca
:10082c000000fa000080fa00000006000200fa0046
:10083c00000f78009460a9009e00780001408800a9
:10084c009460a8000080fa00000006000000fa0086
:10085c00608220008040eb00014878009460a80082
:10086c0005e1a8000080fa00000006000000fa0074
:10087c0005e1a9009460a9000080fa0000000600c0
:10088c000200fa0060822000104f78001e407800b1
:10089c000004e00003003200608220008040eb0086
:1008ac00014878001e4078000080fa000000060025
:1008bc000000fa0070822000104078000080fb00dd
:1008cc000080fa00000006000000fa007082200090
:1008dc008040eb00014878000080fa000000060020
:1008ec000000fa00c422ef00cc22ef00d422ef006b
:1008fc00dc22ef00e422ef00ec22ef00f422ef0008
:10090c00f0672c0000168800f0fd2f0040168800c0
:10091c00e0012f00801688000080eb00c0168800d4
:10092c00f01f200000178800f01b230040178800e0
:10093c00f02c2f00801788005620ef005820ef0075
:10094c005a20ef005c20ef005e20ef006020ef00eb
:10095c006e20ef007020ef007220ef007420ef008b
:10096c007620ef007820ef00c622ef00ce22ef00b9
:10097c00d622ef00de22ef00e622ef00ee22ef009f
:10098c00f622ef000064200000278800d0f32f002f
:10099c00102788000001260020278800000c20006a
:1009ac0030278800002020004027880010002000fd
:1009bc0050278800003c200060278800a804a8006d
:1009cc000080fa00000006000000fa00001023006e
:1009dc00203a88004627ef004827ef007027ef00e9
:1009ec007227ef007427ef007627ef007827ef00cf
:1009fc007a27ef000001eb0080072000a1092000fe
:100a0c00337420008049780081497800824978004d
:100a1c000001eb006004200071052000237420000d
:100a2c008049780081497800824978000080fa007a
:040a3c0000000600b0
:020000040000fa
:100a400026080000020000008000000000080000ee
:100a500004000000800000000608000020000000e4
:100a60008000000004080000020000008200000076
:080a7000ffff00000000000080
:020000040000fa
:100a7800000f78009e00780021408800ffff3700b3
:100a88000000fa006080200080077800e0812000e4
:100a9800000188000080fa00000006000000fa004b
:100aa80021058000f0ff28000080600000c0a00041
:100ab800200588000080fa00000006000000fa0007
:100ac80088ff0700f5ff0700c0ff070029ff0700a0
:100ad8000080fa00000006000000fa00bbff0700d3
:100ae8000080fa00000006000000fa00f3ff07008b
:040af800ffff3700c5
:020000040000fa
:020000040005f5
:0457f400fffc0000b6
:020000040000fa
:020000040005f5
:0457f8009ff8000016
:020000040000fa
:020000040005f5
:0457fc007f4e0000dc
:00000001FF
